:020000040800F2
:10000000000002203D1A0008391A0008371A0008BB
:10001000371A0008371A0008371A000800000000D5
:10002000000000000000000000000000391A000875
:10003000391A000800000000391A0008391A0008AF
:10004000371A0008371A0008371A0008371A00084C
:10005000371A0008371A0008371A0008371A00083C
:10006000371A0008371A0008371A0008371A00082C
:10007000371A0008371A0008371A0008371A00081C
:10008000371A0008BD050008371A0008371A00089B
:10009000371A0008371A0008371A0008371A0008FC
:1000A000371A0008371A0008371A0008371A0008EC
:1000B000371A0008B1010008371A0008371A00087B
:1000C000371A0008371A0008371A0008371A0008CC
:1000D000371A0008371A0008371A0008371A0008BC
:1000E000371A0008371A0008371A0008371A0008AC
:1000F000371A0008371A0008371A0008371A00089C
:10010000371A0008371A0008371A0008371A00088B
:10011000371A0008371A0008371A000819030008B0
:10012000371A0008371A0008371A0008371A00086B
:10013000371A0008371A0008371A0008371A00085B
:10014000371A0008371A0008371A0008371A00084B
:10015000371A0008371A0008371A0008371A00083B
:10016000371A0008371A0008371A0008371A00082B
:10017000371A0008371A0008371A0008371A00081B
:10018000371A0008371A0008371A0008371A00080B
:10019000371A0008371A0008371A0008371A0008FB
:1001A000371A0008371A0008371A00080000000044
:1001B00070B54FF080432DED028BD3F81024520719
:1001C00043D5D3F838544C4B4C4E1D604C4B1A68F9
:1001D000C2F101021A601B68002B35D13368494C0B
:1001E0009FED498AEB1A002BB8BF5B422360D4ED28
:1001F000007AF8EE677AC7EE887A17EE900A00F078
:10020000EBFD35A3D3E9002300F0BCFE78B3D4EDB9
:10021000007AF8EE677AC7EE887A17EE900A00F057
:10022000DBFD2FA3D3E9002300F08EFEF8B1374B9E
:1002300037481C6802684FF00041E14022EA0102A1
:1002400002601A6801321A6035604FF08043D3F8BB
:100250001034DB073AD52F48012101F086F9BDECB7
:10026000028B2C48BDE87040042101F07EB9D4ED2A
:10027000007AF8EE677AC7EE887A17EE900A00F0F7
:10028000ABFD19A3D3E9002300F07CFE0028DBD0EE
:10029000D4ED007AF8EE677AC7EE887A17EE900A06
:1002A00000F09AFD12A3D3E9002300F04DFE0028D0
:1002B000CAD0164A1649146808684FF00043E34054
:1002C00003430B60136801331360BDE7BDEC028B81
:1002D00070BD00BFAFF30080DAE6C6F484253E3F70
:1002E00038842A357BA0453FFA7E6ABC7493583F18
:1002F000C58F31772D215F3F1000002018000020AE
:1003000000000020040500200024F4471400002011
:1003100000050020000400400148012101F025B93A
:10032000001400400148062100F0E9BE00600240D0
:100330000148062100F0ECBE006002402DE9F047C4
:10034000234C01230028D4F808C0666823730CBF2F
:1003500000234FF4EA73A6EB0C064FF0180EDA1DDB
:1003600027680EFB06F604EB4202654600204FF0BC
:100370001D094FF03C0A86421CDDB0FBFEF101EB8B
:100380000C050EFB1101C1F11F0857F8251021FAC9
:1003900008F1C90700F101004CBFA2F800A0A2F8C3
:1003A0000090B0F5EA7F02F10202E4D10135A560C8
:1003B000BDE8F08702222273C0F5EA7218440730C4
:1003C0005200002104EB400000F052FBEEE700BFBA
:1003D000080500200020FFF7B1BF0120FFF7AEBFE6
:1003E00008B5FFF7F7FFBDE80840FFF7F6BF0000CC
:1003F00008B5054B0022C3E900019A60FFF7F0FF42
:10040000BDE80840FFF78EBF0805002002484FF402
:10041000EA62002100F02CBB1605002008B540F26E
:10042000036000F0EEFE0B484FF4805300220221DF
:1004300000F09BFE07484FF4C0430022012100F06A
:1004400094FEBDE8084003484FF48052022100F0BA
:10045000ACBE00BF000C024010B540F60200214CBB
:1004600000F0CFFE00231A461946204601F080F81E
:100470000021204601F0A8F8204601F08CF8204623
:10048000682101F0A3F82046002101F0FFF9204681
:10049000002101F09DF82046002101F093F920464B
:1004A000002101F0AFF806222046002101F0C4F837
:1004B0002046002101F0A0F900221146204601F05B
:1004C0000AFA0021204601F0BCF9204601F059F853
:1004D00020464FF4807101F039F82046BDE8104005
:1004E00001F05EB80008004010B540F21560294CDC
:1004F00000F087FE112001F0F1FA2046062100F0FD
:100500004BFD20464FF44032062100F09EFD204670
:100510004FF40052062100F0A4FD4FF40062204683
:10052000062100F0AAFD2046062100F0BBFD204672
:10053000062100F0AEFD20464022062100F075FDA8
:100540002046154A062100F0ECFD2046134A0621FC
:1005500000F0EFFD4FF46A722046062100F0F6FD30
:100560002046062100F0AFFD2046062100F0B9FD2F
:100570004FF080620621204600F09DFD112001F021
:10058000BBFA1120002101F0C5FABDE8104011208E
:1005900001F0A4BA006002403408004016050020B3
:1005A00008B5FFF73BFFFFF757FFFFF79DFF024B33
:1005B00000221A7308BD00BF0805002013B51022E1
:1005C0002C48062100F01DFDA8B1102229482A4C14
:1005D000062100F007FD29484FF4005100F0BCFD52
:1005E000237B03F0FF023BB3237B022B21D1FFF7D8
:1005F000F1FE002323731F482022062100F001FD95
:10060000A8B120221B481C4C062100F0EBFC1B4823
:100610004FF4804100F0A0FD237B03F0FF02DBB12B
:10062000237B022B13D1FFF7D8FE0023237302B0E4
:1006300010BDFFF7CFFEDEE70192FFF7E7FEFFF701
:1006400077FE019A0E48114601F045F9D3E702B052
:10065000BDE81040FFF7C1BE0192FFF7D7FEFFF7DC
:1006600067FE019A0648114602B0BDE8104001F04D
:1006700032B900BF0060024008050020000C0240B3
:1006800000080040014800F05FBF00BFD01B000819
:10069000F8B54FF49C7200211F4800F0E9F91E4A9A
:1006A000002114460123944606270E4658B200281E
:1006B000B8BF5842B1FBF7F507FB1515B8BF40B2FC
:1006C000022DA070CCBF4FF0FF300120C2F83801DE
:1006D000A3F1640040B20028BCBFC3F1640040B283
:1006E0000131032DE07003F10603B4BF4FF0FF307A
:1006F00001204E29C2F83C01DBB2667002F10C0207
:10070000C2F8346104F10404D0D1CCF8E0640248AA
:10071000BDE8F840FFF76CBE1C00002070B44CF23E
:10072000503100BF0139FCD1224B1B7B002B3FD144
:100730002148012403464FF0FF35D3F83861827811
:100740003244D2B282701EB1FF2A22D1C3F838518E
:10075000D3F83C61C2783244D2B2C2701EB1FF2AD3
:100760001CD1C3F83C51D3F8406142783244D2B234
:1007700042701EB1FF2A16D1C3F8405101314E29F3
:1007800000F1040003F10C03D7D170BC0A48FFF755
:100790002FBE002ADCD1C3F83841D9E7002AE2D1C4
:1007A000C3F83C41DFE7002AE8D1C3F84041E5E760
:1007B00070BC7047080500201C00002010B44CF2EB
:1007C000503100BF0139FCD1114B1B7BEBB9114BF0
:1007D000FF200A461A29A1F11B04DEBF9870DA70C7
:1007E0005A70192C03D89A70D8705A7003E0A1F18E
:1007F0003504192CF7D901314E2903F10403E9D14D
:1008000004485DF8044BFFF7F3BD5DF8044B7047F7
:10081000080500201C0000202DE9F0414CF2503565
:1008200000BF013DFCD11A4B1B7B7BBB194C012740
:100830002646A046D6F83801D6F83CC1A278E17821
:10084000D6F840E16378024461447344D2B2C9B23D
:10085000DBB2A270E170637068B1BCF1000F0AD026
:10086000BEF1000F07D00A401340FF2B04BFC6E9BA
:100870004E77C6F840714E2140460135FFF7B8FD6E
:100880004E2D04F1040406F10C06D3D1BDE8F0812D
:10089000080500201C00002030B44CF2503100BF8D
:1008A0000139FCD10E4B1B7BBBB90E4BFF2200F173
:1008B00009050C4688420DDC8D420BDB9C70DC7018
:1008C00001314E295A7003F10403F3D130BC0548BD
:1008D000FFF78EBD9A70DA70F2E730BC704700BF48
:1008E000080500201C00002038B540F2026000F02E
:1008F00088FC80232F48304C0022022100F035FC78
:10090000802202212B4800F050FC40F6010000F04C
:1009100078FC20467F2100F057FE4FF6FF712046FD
:1009200000F054FE204600F031FE1D2001F0D6F804
:1009300062B64FF08045204600F037FE204600F0BA
:1009400020FED5F81834C5F81834204600220121BD
:1009500000F0D1FF20460022012100F0F4FFD5F87D
:10096000183443F48073C5F818340222204601215C
:1009700001F04AF82046012101F03EF8022220460B
:10098000012101F008F82046042100F0DFFD0421D8
:10099000204600F0DFFD0121204600F0E6FD204664
:1009A00000F008FE204600F00AFE2046BDE8384070
:1009B00000F0F6BD000802400004004038B5FFF723
:1009C00093FF244C244A25492548264D13688B4221
:1009D0001ED00FD8A34231D0AB42F7D1224800F04D
:1009E000E4FDFFF74FFEFFF7DBFDFFF751FEFFF7DA
:1009F00013FFFCE78342E9D11B4800F0D6FDFFF767
:100A000041FEFFF7CDFDFFF743FEFFF7D7FEFCE702
:100A1000154800F0CAFDFFF735FEFFF7C1FDFFF7EF
:100A200037FE00242046FFF737FF272C0F4B14BF5B
:100A30000134002400BF013BFCD1F3E70A4800F079
:100A4000B4FDFFF71FFEFFF7ABFDFFF721FEFFF739
:100A500065FEFCE7DD22FF00000500205DA2FF002F
:100A60001DE2FF009D62FF00000400404054890029
:100A7000F0B4860746D0541E002A3CD0CAB20346C2
:100A800001E0013C37D303F8012B9D07F9D1032C7A
:100A90002AD9CDB245EA05250F2C45EA054534D9BA
:100AA000A4F1100222F00F0C03F12007160967448D
:100AB00003F1100242E9045542E902551032BA42EC
:100AC000F8D1721C14F00C0F03EB021204F00F06A5
:100AD00013D0331F23F003030433134442F8045BA1
:100AE0009342FBD106F003042CB1CAB21C4403F8B4
:100AF000012B9C42FBD1F0BC704734461346002CBE
:100B0000F3D1F8E714460346C1E71A462646E0E764
:100B100081F0004102E000BF83F0004330B54FEAAE
:100B200041044FEA430594EA050F08BF90EA020F1B
:100B30001FBF54EA000C55EA020C7FEA645C7FEAAE
:100B4000655C00F0E2804FEA5454D4EB5555B8BFD1
:100B50006D420CDD2C4480EA020281EA030382EA42
:100B6000000083EA010180EA020281EA0303362DD4
:100B700088BF30BD11F0004F4FEA01314FF4801CA7
:100B80004CEA113102D0404261EB410113F0004FB9
:100B90004FEA03334CEA133302D0524263EB430370
:100BA00094EA050F00F0A780A4F10104D5F1200E0E
:100BB0000DDB02FA0EFC22FA05F2801841F1000169
:100BC00003FA0EF2801843FA05F359410EE0A5F13D
:100BD00020050EF1200E012A03FA0EFC28BF4CF06E
:100BE000020C43FA05F3C01851EBE37101F0004524
:100BF00007D54FF0000EDCF1000C7EEB00006EEB31
:100C00000101B1F5801F1BD3B1F5001F0CD34908BA
:100C10005FEA30004FEA3C0C04F101044FEA445211
:100C200012F5800F80F09A80BCF1004F08BF5FEA98
:100C3000500C50F1000041EB045141EA050130BD78
:100C40005FEA4C0C404141EB0101013C28BFB1F58A
:100C5000801FE9D291F0000F04BF01460020B1FAD5
:100C600081F308BF2033A3F10B03B3F120020CDAA8
:100C70000C3208DD02F1140CC2F10C0201FA0CF086
:100C800021FA02F10CE002F11402D8BFC2F1200CEB
:100C900001FA02F120FA0CFCDCBF41EA0C019040A1
:100CA000E41AA2BF01EB0451294330BD6FEA0404EA
:100CB0001F3C1CDA0C340EDC04F11404C4F12002D5
:100CC00020FA04F001FA02F340EA030021FA04F3E7
:100CD00045EA030130BDC4F10C04C4F1200220FA3E
:100CE00002F001FA04F340EA0300294630BD21FA7C
:100CF00004F0294630BD94F0000F83F4801306BF42
:100D000081F480110134013D4EE77FEA645C18BF35
:100D10007FEA655C29D094EA050F08BF90EA020FCC
:100D200005D054EA000C04BF1946104630BD91EAC4
:100D3000030F1EBF0021002030BD5FEA545C05D1C7
:100D40004000494128BF41F0004130BD14F5800406
:100D50003CBF01F5801130BD01F0004545F0FE417A
:100D600041F470014FF0000030BD7FEA645C1ABFAF
:100D7000194610467FEA655C1CBF0B46024650EAE6
:100D8000013406BF52EA033591EA030F41F4002112
:100D900030BD00BF90F0000F04BF0021704730B598
:100DA0004FF4806404F132044FF000054FF000016D
:100DB00050E700BF90F0000F04BF0021704730B52E
:100DC0004FF4806404F1320410F0004548BF404203
:100DD0004FF000013EE700BF42004FEAE2014FEA58
:100DE00031014FEA02701FBF12F07F4393F07F4F33
:100DF00081F06051704732F07F4208BF704793F036
:100E00007F4F04BF41F40021704730B54FF4607448
:100E100001F0004521F000411CE700BF50EA01024B
:100E200008BF704730B54FF000050AE050EA0102F4
:100E300008BF704730B511F0004502D5404261EB64
:100E400041014FF4806404F132045FEA915C3FF4A5
:100E5000D8AE4FF003025FEADC0C18BF03325FEA42
:100E6000DC0C18BF033202EBDC02C2F1200300FAF3
:100E700003FC20FA02F001FA03FE40EA0E0021FA18
:100E800002F11444BDE600BF4FF0FF3C06E000BF96
:100E90004FF0010C02E000BF4FF0010C4DF804CD03
:100EA0004FEA410C7FEA6C5C4FEA430C18BF7FEAC3
:100EB0006C5C1BD001B050EA410C0CBF52EA430CF1
:100EC00091EA030F02BF90EA020F0020704710F171
:100ED000000F91EA030F58BF994208BF90422CBF00
:100EE000D8176FEAE37040F0010070474FEA410CF9
:100EF0007FEA6C5C02D150EA013C07D14FEA430C17
:100F00007FEA6C5CD6D152EA033CD3D05DF8040B87
:100F1000704700BF8446104662468C4619466346B9
:100F200000E000BF01B5FFF7B7FF002848BF10F190
:100F3000000F01BD4DF808EDFFF7F4FF0CBF0120D5
:100F400000205DF808FB00BF4DF808EDFFF7EAFF51
:100F500034BF012000205DF808FB00BF4DF808ED0C
:100F6000FFF7E0FF94BF012000205DF808FB00BF01
:100F70004DF808EDFFF7CEFF94BF012000205DF88B
:100F800008FB00BF4DF808EDFFF7C4FF34BF012098
:100F900000205DF808FB00BF182313FB010310B508
:100FA0001A6922F001021A6100221A61C3E90622BD
:100FB0005A611A6221225A62C1F34002062301F0EB
:100FC0000104120113FB042203294FF03D0303FA2D
:100FD00002F395BF8268C2681343134394BF8360D2
:100FE000C36010BD30B5C1F340031C0101F0010521
:100FF000062313FB05439A40032994BF8260C26015
:1010000030BDC1F3400330B51C0101F001050623DA
:1010100013FB0543032902FA03F294BF03684368F4
:10102000134214BF0120002030BD1823103003FBF1
:101030000101802A0B680ABF23F4802323F0C00338
:1010400023F4E07313430B6070471030182303FB45
:101050000101086820F4403008600B681A430A60F8
:1010600070471030182303FB0101086820F4C040CA
:1010700008600B681A430A6070471030182303FB9E
:101080000101086820F4C05008600B681A430A6028
:1010900070471823103003FB01010B6843F4806391
:1010A0000B6070471823103003FB01010B6843F4F9
:1010B00080730B6070471823103003FB01010B682D
:1010C0001A430A60704738B510220446FFF78AFFBA
:1010D0001034182010FB0144236843F008032360F8
:1010E00038BD38B520220446FFF77CFF10341820A5
:1010F00010FB0144236843F01003236038BD18231C
:10110000103003FB01010B6843F001030B607047D3
:101110001823103003FB01010B6823F001030B605F
:101120007047182303FB01010B69DB0758BF8A6175
:101130007047182303FB01010B69D80704D503F49A
:101140004023B3F5402F00D1CA61704714301823F3
:1011500003FB010002607047436901EA030221EAD0
:10116000030141EA0241816170472DE9F0410568C0
:10117000C46800264FF0030E43FA06F7FF070DD5AB
:1011800077000EFA07FC01FA07F825EA0C0524EAB5
:101190000C0402FA07F748EA05053C430136102E15
:1011A000EAD10560C460BDE8F081F0B5076A466A1F
:1011B00000234FF00F0C42FA03F4E50707D59D001A
:1011C0000CFA05F427EA040701FA05F52F43013369
:1011D000082BF0D100234FF00F0C03F1080442FA62
:1011E00004F4E40707D59C000CFA04F526EA05068A
:1011F00001FA04F426430133082BEED1076246625C
:10120000F0BD430903F1804303F50E3300F01F00E6
:101210001968012202FA00F00843186070470000C4
:1012200006282BD8DFE800F0041E240A10161A0046
:10123000134BD3F80008C0F340607047104BD3F84D
:101240000008C0F3404070470D4BD3F80008C0F3CE
:10125000400070470A4BD3F87008F8E7084BD3F802
:101260007408F4E7064BD3F80008C0F340707047E9
:10127000034BD3F80008C0F3C060704700207047EC
:101280000030024008B502461046FFF7C9FF0028AB
:10129000FAD008BD06280CD8DFE800F004282E0C90
:1012A00012182000174AD2F8003843F08073C2F8B1
:1012B00000387047134AD2F8003843F48033F6E719
:1012C000104AD2F8003843F00103F0E70D4AD2F893
:1012D000703843F00103C2F870387047094AD2F8F9
:1012E000743843F00103C2F874387047054AD2F8E5
:1012F000003843F08053DAE7024AD2F8003843F06E
:101300008063D4E70030024006280CD8DFE800F004
:1013100004282E0C12182000174AD2F8003823F0A7
:101320008073C2F800387047134AD2F8003823F4AB
:101330008033F6E7104AD2F8003823F00103F0E7D3
:101340000D4AD2F8703823F00103C2F870387047A4
:10135000094AD2F8743823F00103C2F87438704790
:10136000054AD2F8003823F08053DAE7024AD2F86F
:10137000003823F08063D4E700300240044AD2F8FA
:10138000083823F003031843C2F80808704700BF69
:1013900000300240044AD2F8083823F4604343EA9C
:1013A0004030C2F80808704700300240044AD2F8C2
:1013B000083823F4E05343EA8020C2F80808704755
:1013C00000300240044AD2F8083823F0F00343EA20
:1013D0000010C2F8080870470030024010B547F608
:1013E000C07404EA811100F03F001B0603F0706333
:1013F00001431943029B5408022B04F1FF344FEAC6
:10140000044438BF022304F440341B0703F0E043D4
:1014100021431943014BC3F8041810BD00300240AA
:1014200010B5029C022C38BF022424071B0603F0CF
:10143000706304F0E04452081C4300F03F0047F69C
:10144000C073013A03EA8111044312040C4302F40D
:101450004032034B144344F48004C3F8044810BDE5
:101460000030024037B504460420FFF713FFFFF7B2
:1014700009FF0020FFF782FFE379012B04D103204D
:10148000FFF708FFFFF7FEFE40F61C00FFF7B9FE6E
:10149000E07B00F083FB207BFFF794FF607BFFF78E
:1014A00085FFA07BFFF776FF0020FFF72DFFE37994
:1014B000A5792279618820780095012B63792FD155
:1014C000FFF7AEFF0020FFF7E5FEFFF7DBFEA368A6
:1014D0005A0528D500F03AFBA3689B0526D500F0F5
:1014E00049FBA06800F026FB0220FFF747FF124AE5
:1014F000D2F80838C3F38103022BF9D10F4B2269CC
:101500001A600F4B62691A600E4BA2691A60E37988
:10151000012B0ED1042003B0BDE83040FFF7F4BE2C
:10152000FFF75CFFCEE700F01BFBD5E700F02CFBDC
:10153000D7E703B030BD00BF0030024004000020F8
:10154000080000200C000020FFF78CBFC36819437F
:10155000C16070470369C068034013EA010003D00B
:1015600080298CBF002001207047C943016170476A
:1015700010B50468134324F45C74194321430160DB
:1015800010BD036843F0800303607047036823F0D5
:10159000100303607047036823F00803036070477B
:1015A000036843F0010303607047036823F00103FD
:1015B00003607047436843F0040343607047436827
:1015C00043F001034360704781627047C162704716
:1015D000062912D8DFE801F0041109110D111200DB
:1015E000836923F0800383617047836923F4004398
:1015F000F9E7C36923F08003C3617047C36923F42B
:101600000043F9E7062912D8DFE801F004110911B7
:101610000D111200836923F004038361704783690D
:1016200023F48063F9E7C36923F00403C3617047BF
:10163000C36923F48063F9E706297AD8DFE801F06B
:101640000479337963799200836923F0030383611A
:1016500083698361836923F070038361072A68D8F3
:10166000DFE802F03304090D1115191D836943F0F9
:10167000100383617047836943F02003F9E78369AE
:1016800043F03003F5E7836943F04003F1E78369F2
:1016900043F05003EDE7836943F06003E9E78369B2
:1016A00043F07003E5E7836923F440738361836942
:1016B0008361836923F4E0438361072A39D8DFE833
:1016C00002F004060A0E12161A1E8369D1E7836916
:1016D00043F48053CDE7836943F40053C9E783693A
:1016E00043F44053C5E7836943F48043C1E783690A
:1016F00043F4A043BDE7836943F4C043B9E783697A
:1017000043F4E043B5E7C36923F00303C361C3694E
:10171000C361C36923F07003C361072A09D8DFE8F6
:1017200002F03304090D1115191DC36943F01003AC
:10173000C3617047C36943F02003F9E7C36943F00D
:101740003003F5E7C36943F04003F1E7C36943F0B1
:101750005003EDE7C36943F06003E9E7C36943F071
:101760007003E5E7C36923F44073C361C369C361D0
:10177000C36923F4E043C361072ADAD8DFE802F043
:1017800004060A0E12161A1EC369D1E7C36943F490
:101790008053CDE7C36943F40053C9E7C36943F4F9
:1017A0004053C5E7C36943F48043C1E7C36943F4C9
:1017B000A043BDE7C36943F4C043B9E7C36943F439
:1017C000E043B5E7062912D8DFE801F0041109115A
:1017D0000D111200836943F0080383617047836928
:1017E00043F40063F9E7C36943F00803C36170473A
:1017F000C36943F40063F9E7062909D8DFE801F07B
:10180000041509190D1D1100036A23F00203036278
:101810007047036A23F02003F9E7036A23F4007397
:10182000F5E7036A23F40053F1E7036A23F00803A2
:10183000EDE7036A23F08003E9E7036A23F400631A
:10184000E5E7062909D8DFE801F0041509190D1D9F
:101850001100036A43F0010303627047036A43F017
:101860001003F9E7036A43F48073F5E7036A43F46E
:101870008053F1E7036A43F00403EDE7036A43F0A2
:101880004003E9E7036A43F48063E5E7062909D8E2
:10189000DFE801F0041509190D1D1100036A23F09A
:1018A000010303627047036A23F01003F9E7036A38
:1018B00023F48073F5E7036A23F48053F1E7036AA6
:1018C00023F00403EDE7036A23F04003E9E7036A2A
:1018D00023F48063E5E706290CD8DFE801F0040B68
:1018E000060B080B0A004263704782637047C263AD
:1018F00070470264704703291CD8DFE801F0020B2F
:10190000131C836923F0F0038361836943EA0212A5
:1019100082617047836923F470438361836943EA7A
:101920000232F5E7C36923F0F003C361C36943EAF8
:101930000212C2617047C36923F47043C361C36973
:1019400043EA0232F5E703291CD8DFE801F0020B75
:10195000131C836923F00C038361836943EA8202C9
:1019600082617047836923F440638361836943EA3A
:101970008222F5E7C36923F00C03C361C36943EA1C
:101980008202C2617047C36923F44063C361C369C3
:1019900043EA8222F5E701F0FD03012B02F0030286
:1019A00004D1531E012B98BF82F0030203291AD8D9
:1019B000DFE801F0020A121A836923F0030383614E
:1019C00083691A4382617047836923F4407383619A
:1019D000836943EA0222F5E7C36923F00303C36185
:1019E000C3691A43C2617047C36923F44073C3617A
:1019F000C36943EA0222F5E7026A8900012303FA78
:101A000001F111430162704710B58900046A0A238D
:101A10008B4024EA0304012A046205D0022A02D181
:101A2000026A1343036210BD026A022303FA01F142
:101A300011430162F7E7FEE77047000038B51D4A21
:101A40001D4B1E498B4220D31D4A0021934221D3B6
:101A50004FF0E0231B4CD3F8142D1B4D42F40072C1
:101A6000C3F8142DD3F8882D42F47002C3F8882DE2
:101A7000AC4212D3154C164DAC4212D3FEF79EFF6A
:101A8000144C154DAC4210D338BD52F8040B43F83A
:101A9000040BD7E743F8041BD8E754F8043B9847F6
:101AA000E6E754F8043B9847E6E754F8043B9847C8
:101AB000E8E700BF081C000800000020100000201C
:101AC000680C0020081C0008081C0008081C0008FE
:101AD000081C0008081C0008081C0008054B4209E7
:101AE00003EB820300F01F00012202FA00F01860ED
:101AF000704700BF00E100E0054B420903EB8203A1
:101B000000F01F00012202FA00F01860704700BFC9
:101B100080E200E05A2893BF00F16040044B00F0DF
:101B20000F0000F564408CBFC1540170704700BFC6
:101B300014ED00E0044AD2F8003C23F00F031843F0
:101B4000C2F8000C704700BF00300240034AD2F8D0
:101B5000003C43F48063C2F8003C70470030024010
:101B6000034AD2F8003C23F48063C2F8003C70477B
:101B700000300240034AD2F8003C43F40073C2F83C
:101B8000003C704700300240034AD2F8003C23F486
:101B90000073C2F8003C704700300240044A1368EA
:101BA000800323F4404380B218431060704700BFA5
:101BB0000070004008005001040700010206000008
:101BC0000004000300BD010580DE800200BD0105A8
:101BD000080050010207000105060000000504038B
:101BE000007A030A80DE800200BD0105080068015A
:101BF0000208000105060000000504030095BA0A6A
:081C000040A5AE02804A5D051B
:101C0800010000000024F4000024F4000024F40083
:0400000508001A3D98
:00000001FF
